{
  "_format": "hh3-artifact-1",
  "contractName": "Fund",
  "sourceName": "contracts/Fund.sol",
  "abi": [
    {
      "inputs": [
        {
          "internalType": "address",
          "name": "_swapRouter",
          "type": "address"
        },
        {
          "internalType": "address",
          "name": "_priceRegistry",
          "type": "address"
        }
      ],
      "stateMutability": "nonpayable",
      "type": "constructor"
    },
    {
      "inputs": [],
      "name": "InvalidInitialization",
      "type": "error"
    },
    {
      "inputs": [],
      "name": "NotInitializing",
      "type": "error"
    },
    {
      "inputs": [
        {
          "internalType": "address",
          "name": "owner",
          "type": "address"
        }
      ],
      "name": "OwnableInvalidOwner",
      "type": "error"
    },
    {
      "inputs": [
        {
          "internalType": "address",
          "name": "account",
          "type": "address"
        }
      ],
      "name": "OwnableUnauthorizedAccount",
      "type": "error"
    },
    {
      "inputs": [],
      "name": "ReentrancyGuardReentrantCall",
      "type": "error"
    },
    {
      "inputs": [
        {
          "internalType": "address",
          "name": "token",
          "type": "address"
        }
      ],
      "name": "SafeERC20FailedOperation",
      "type": "error"
    },
    {
      "anonymous": false,
      "inputs": [
        {
          "indexed": true,
          "internalType": "contract IERC20",
          "name": "token",
          "type": "address"
        },
        {
          "indexed": true,
          "internalType": "address",
          "name": "from",
          "type": "address"
        },
        {
          "indexed": false,
          "internalType": "uint256",
          "name": "amount",
          "type": "uint256"
        }
      ],
      "name": "Deposit",
      "type": "event"
    },
    {
      "anonymous": false,
      "inputs": [],
      "name": "EIP712DomainChanged",
      "type": "event"
    },
    {
      "anonymous": false,
      "inputs": [
        {
          "indexed": false,
          "internalType": "uint64",
          "name": "version",
          "type": "uint64"
        }
      ],
      "name": "Initialized",
      "type": "event"
    },
    {
      "anonymous": false,
      "inputs": [
        {
          "indexed": true,
          "internalType": "address",
          "name": "previousOwner",
          "type": "address"
        },
        {
          "indexed": true,
          "internalType": "address",
          "name": "newOwner",
          "type": "address"
        }
      ],
      "name": "OwnershipTransferred",
      "type": "event"
    },
    {
      "anonymous": false,
      "inputs": [
        {
          "indexed": true,
          "internalType": "address",
          "name": "refunder",
          "type": "address"
        },
        {
          "indexed": false,
          "internalType": "uint256",
          "name": "amount",
          "type": "uint256"
        }
      ],
      "name": "Refund",
      "type": "event"
    },
    {
      "anonymous": false,
      "inputs": [
        {
          "indexed": true,
          "internalType": "address",
          "name": "token",
          "type": "address"
        },
        {
          "indexed": false,
          "internalType": "uint256",
          "name": "amount",
          "type": "uint256"
        },
        {
          "indexed": false,
          "internalType": "string",
          "name": "reason",
          "type": "string"
        }
      ],
      "name": "SwapFailed",
      "type": "event"
    },
    {
      "anonymous": false,
      "inputs": [
        {
          "indexed": false,
          "internalType": "uint256",
          "name": "amount",
          "type": "uint256"
        }
      ],
      "name": "Withdrawal",
      "type": "event"
    },
    {
      "inputs": [],
      "name": "PRICE_REGISTRY",
      "outputs": [
        {
          "internalType": "contract IPriceFeedRegistry",
          "name": "",
          "type": "address"
        }
      ],
      "stateMutability": "view",
      "type": "function"
    },
    {
      "inputs": [],
      "name": "SWAP_ROUTER",
      "outputs": [
        {
          "internalType": "address",
          "name": "",
          "type": "address"
        }
      ],
      "stateMutability": "view",
      "type": "function"
    },
    {
      "inputs": [],
      "name": "close",
      "outputs": [],
      "stateMutability": "nonpayable",
      "type": "function"
    },
    {
      "inputs": [],
      "name": "closed",
      "outputs": [
        {
          "internalType": "bool",
          "name": "",
          "type": "bool"
        }
      ],
      "stateMutability": "view",
      "type": "function"
    },
    {
      "inputs": [
        {
          "internalType": "contract IERC20",
          "name": "token",
          "type": "address"
        },
        {
          "internalType": "uint256",
          "name": "amount",
          "type": "uint256"
        }
      ],
      "name": "deposit",
      "outputs": [],
      "stateMutability": "nonpayable",
      "type": "function"
    },
    {
      "inputs": [
        {
          "internalType": "contract ERC20Permit",
          "name": "token",
          "type": "address"
        },
        {
          "internalType": "address",
          "name": "funder",
          "type": "address"
        },
        {
          "internalType": "uint256",
          "name": "amount",
          "type": "uint256"
        },
        {
          "internalType": "uint256",
          "name": "deadline",
          "type": "uint256"
        },
        {
          "internalType": "bytes",
          "name": "funderSignature",
          "type": "bytes"
        }
      ],
      "name": "deposit",
      "outputs": [],
      "stateMutability": "nonpayable",
      "type": "function"
    },
    {
      "inputs": [],
      "name": "eip712Domain",
      "outputs": [
        {
          "internalType": "bytes1",
          "name": "fields",
          "type": "bytes1"
        },
        {
          "internalType": "string",
          "name": "name",
          "type": "string"
        },
        {
          "internalType": "string",
          "name": "version",
          "type": "string"
        },
        {
          "internalType": "uint256",
          "name": "chainId",
          "type": "uint256"
        },
        {
          "internalType": "address",
          "name": "verifyingContract",
          "type": "address"
        },
        {
          "internalType": "bytes32",
          "name": "salt",
          "type": "bytes32"
        },
        {
          "internalType": "uint256[]",
          "name": "extensions",
          "type": "uint256[]"
        }
      ],
      "stateMutability": "view",
      "type": "function"
    },
    {
      "inputs": [],
      "name": "funds",
      "outputs": [
        {
          "internalType": "uint256",
          "name": "amount",
          "type": "uint256"
        }
      ],
      "stateMutability": "view",
      "type": "function"
    },
    {
      "inputs": [],
      "name": "fundsAvailable",
      "outputs": [
        {
          "internalType": "uint256",
          "name": "amount",
          "type": "uint256"
        }
      ],
      "stateMutability": "view",
      "type": "function"
    },
    {
      "inputs": [],
      "name": "fundsRegistered",
      "outputs": [
        {
          "internalType": "uint256",
          "name": "amount",
          "type": "uint256"
        }
      ],
      "stateMutability": "view",
      "type": "function"
    },
    {
      "inputs": [],
      "name": "hashSignTerms",
      "outputs": [
        {
          "internalType": "bytes32",
          "name": "hash",
          "type": "bytes32"
        }
      ],
      "stateMutability": "view",
      "type": "function"
    },
    {
      "inputs": [
        {
          "internalType": "uint256",
          "name": "amount",
          "type": "uint256"
        }
      ],
      "name": "hashWithdraw",
      "outputs": [
        {
          "internalType": "bytes32",
          "name": "hash",
          "type": "bytes32"
        }
      ],
      "stateMutability": "view",
      "type": "function"
    },
    {
      "inputs": [
        {
          "internalType": "bytes",
          "name": "args",
          "type": "bytes"
        }
      ],
      "name": "initialize",
      "outputs": [],
      "stateMutability": "nonpayable",
      "type": "function"
    },
    {
      "inputs": [
        {
          "internalType": "bytes",
          "name": "oracleSignature",
          "type": "bytes"
        }
      ],
      "name": "lockTerms",
      "outputs": [],
      "stateMutability": "nonpayable",
      "type": "function"
    },
    {
      "inputs": [],
      "name": "nonce",
      "outputs": [
        {
          "internalType": "uint256",
          "name": "",
          "type": "uint256"
        }
      ],
      "stateMutability": "view",
      "type": "function"
    },
    {
      "inputs": [],
      "name": "oracle",
      "outputs": [
        {
          "internalType": "address",
          "name": "",
          "type": "address"
        }
      ],
      "stateMutability": "view",
      "type": "function"
    },
    {
      "inputs": [],
      "name": "oracleCut",
      "outputs": [
        {
          "internalType": "uint256",
          "name": "",
          "type": "uint256"
        }
      ],
      "stateMutability": "view",
      "type": "function"
    },
    {
      "inputs": [],
      "name": "owner",
      "outputs": [
        {
          "internalType": "address",
          "name": "",
          "type": "address"
        }
      ],
      "stateMutability": "view",
      "type": "function"
    },
    {
      "inputs": [],
      "name": "payoutToken",
      "outputs": [
        {
          "internalType": "contract IERC20",
          "name": "",
          "type": "address"
        }
      ],
      "stateMutability": "view",
      "type": "function"
    },
    {
      "inputs": [],
      "name": "refund",
      "outputs": [],
      "stateMutability": "nonpayable",
      "type": "function"
    },
    {
      "inputs": [],
      "name": "renounceOwnership",
      "outputs": [],
      "stateMutability": "nonpayable",
      "type": "function"
    },
    {
      "inputs": [
        {
          "internalType": "contract IERC20",
          "name": "token",
          "type": "address"
        },
        {
          "internalType": "address",
          "name": "feed",
          "type": "address"
        }
      ],
      "name": "setTokenFeed",
      "outputs": [],
      "stateMutability": "nonpayable",
      "type": "function"
    },
    {
      "inputs": [],
      "name": "status",
      "outputs": [
        {
          "internalType": "enum IFund.Status",
          "name": "stat",
          "type": "uint8"
        }
      ],
      "stateMutability": "view",
      "type": "function"
    },
    {
      "inputs": [],
      "name": "terms",
      "outputs": [
        {
          "internalType": "string",
          "name": "",
          "type": "string"
        }
      ],
      "stateMutability": "view",
      "type": "function"
    },
    {
      "inputs": [],
      "name": "termsSignature",
      "outputs": [
        {
          "internalType": "bytes",
          "name": "",
          "type": "bytes"
        }
      ],
      "stateMutability": "view",
      "type": "function"
    },
    {
      "inputs": [
        {
          "internalType": "contract IERC20",
          "name": "",
          "type": "address"
        }
      ],
      "name": "tokenFeeds",
      "outputs": [
        {
          "internalType": "address",
          "name": "",
          "type": "address"
        }
      ],
      "stateMutability": "view",
      "type": "function"
    },
    {
      "inputs": [
        {
          "internalType": "address",
          "name": "newOwner",
          "type": "address"
        }
      ],
      "name": "transferOwnership",
      "outputs": [],
      "stateMutability": "nonpayable",
      "type": "function"
    },
    {
      "inputs": [
        {
          "internalType": "uint256",
          "name": "",
          "type": "uint256"
        }
      ],
      "name": "treasuryFunders",
      "outputs": [
        {
          "internalType": "address",
          "name": "",
          "type": "address"
        }
      ],
      "stateMutability": "view",
      "type": "function"
    },
    {
      "inputs": [
        {
          "internalType": "uint256",
          "name": "",
          "type": "uint256"
        }
      ],
      "name": "treasuryTokens",
      "outputs": [
        {
          "internalType": "contract IERC20",
          "name": "",
          "type": "address"
        }
      ],
      "stateMutability": "view",
      "type": "function"
    },
    {
      "inputs": [
        {
          "internalType": "uint256",
          "name": "cut",
          "type": "uint256"
        },
        {
          "internalType": "contract IERC20",
          "name": "token",
          "type": "address"
        },
        {
          "internalType": "string",
          "name": "terms_",
          "type": "string"
        }
      ],
      "name": "updateTerms",
      "outputs": [],
      "stateMutability": "nonpayable",
      "type": "function"
    },
    {
      "inputs": [
        {
          "internalType": "uint256",
          "name": "amount",
          "type": "uint256"
        },
        {
          "internalType": "bytes",
          "name": "oracleSignature",
          "type": "bytes"
        }
      ],
      "name": "withdraw",
      "outputs": [],
      "stateMutability": "nonpayable",
      "type": "function"
    },
    {
      "inputs": [],
      "name": "worker",
      "outputs": [
        {
          "internalType": "address",
          "name": "",
          "type": "address"
        }
      ],
      "stateMutability": "view",
      "type": "function"
    }
  ],
  "bytecode": "0x60c060405234801561000f575f5ffd5b5060405161397338038061397383398101604081905261002e9161041e565b5f5160206139535f395f51905f52805468010000000000000000810460ff1615906001600160401b03165f811580156100645750825b90505f826001600160401b0316600114801561007f5750303b155b90508115801561008d575080155b156100ab5760405163f92ee8a960e01b815260040160405180910390fd5b84546001600160401b031916600117855583156100d957845460ff60401b1916680100000000000000001785555b6001600160a01b0387166101345760405162461bcd60e51b815260206004820152601d60248201527f526f757465722063616e6e6f74206265207a65726f206164647265737300000060448201526064015b60405180910390fd5b6001600160a01b03808816608052861660a05261015033610200565b61019560405180604001604052806004815260200163119d5b9960e21b815250604051806040016040528060018152602001603160f81b81525061021460201b60201c565b61019d61022a565b5f80546001600160a01b0319163317905583156101f457845460ff60401b19168555604051600181527fc7f505b2f371ae2175ee4913f4499e1f2633a7b5936321eed1cdaeb6115181d29060200160405180910390a15b505050505050506105a1565b61020861023c565b61021181610277565b50565b61021c61023c565b61022682826102b1565b5050565b61023261023c565b61023a610323565b565b5f5160206139535f395f51905f525468010000000000000000900460ff1661023a57604051631afcd79f60e31b815260040160405180910390fd5b61027f61023c565b6001600160a01b0381166102a857604051631e4fbdf760e01b81525f600482015260240161012b565b61021181610351565b6102b961023c565b7fa16a46d94261c7517cc8ff89f61c0ce93598e3c849801011dee649a6a557d1007fa16a46d94261c7517cc8ff89f61c0ce93598e3c849801011dee649a6a557d10261030584826104e7565b506003810161031483826104e7565b505f8082556001909101555050565b61032b61023c565b60017f9b779b17422d0df92223018b32b4d1fa46e071723d6817e2486d003becc55f0055565b5f6103705f5160206139335f395f51905f52546001600160a01b031690565b6001600160a01b0316146103a257604051631e4fbdf760e01b81526001600160a01b038216600482015260240161012b565b610211815f5160206139335f395f51905f5280546001600160a01b031981166001600160a01b03848116918217845560405192169182907f8be0079c531659141344cd1fd0a4f28419497f9722a3daafe3b4186f6b6457e0905f90a3505050565b80516001600160a01b0381168114610419575f5ffd5b919050565b5f5f6040838503121561042f575f5ffd5b61043883610403565b915061044660208401610403565b90509250929050565b634e487b7160e01b5f52604160045260245ffd5b600181811c9082168061047757607f821691505b60208210810361049557634e487b7160e01b5f52602260045260245ffd5b50919050565b601f8211156104e257805f5260205f20601f840160051c810160208510156104c05750805b601f840160051c820191505b818110156104df575f81556001016104cc565b50505b505050565b81516001600160401b038111156105005761050061044f565b6105148161050e8454610463565b8461049b565b6020601f821160018114610546575f831561052f5750848201515b5f19600385901b1c1916600184901b1784556104df565b5f84815260208120601f198516915b828110156105755787850151825560209485019460019092019101610555565b508482101561059257868401515f19600387901b60f8161c191681555b50505050600190811b01905550565b60805160a0516133396105fa5f395f818161020501528181612299015281816122e50152818161237201526123de01525f81816103c8015281816117db0152818161185901528181611902015261198101526133395ff3fe608060405234801561000f575f5ffd5b50600436106101e7575f3560e01c8063597e1fb5116101095780638da5cb5b1161009e578063d50256251161006e578063d5025625146103f2578063d87ac65f146103fa578063f2fde38b14610422578063ff706aa614610435575f5ffd5b80638da5cb5b146103b2578063affed0e0146103ba578063c6005893146103c3578063c89f2ce4146103ea575f5ffd5b806384b0196e116100d957806384b0196e1461036857806385653d961461038357806387ef019a1461038c57806389740c7e1461039f575f5ffd5b8063597e1fb51461031e578063715018a61461033b57806371b8dc69146103435780637dc0d1d014610356575f5ffd5b806347e7ef241161017f578063528ca7c41161014f578063528ca7c4146102db578063551ef6e3146102f057806358b5daa214610303578063590e1ae314610316575f5ffd5b806347e7ef24146102a55780634d547ada146102b85780634efa82b6146102c05780634fe0bd1e146102d3575f5ffd5b80632c613a14116101ba5780632c613a141461026f5780633b91e62f14610282578063439fab911461028a57806343d726d61461029d575f5ffd5b8063030ba25d146101eb5780631ed2572614610200578063200d2ed21461024457806329a5ddbb14610259575b5f5ffd5b6101fe6101f93660046128cd565b610448565b005b6102277f000000000000000000000000000000000000000000000000000000000000000081565b6040516001600160a01b0390911681526020015b60405180910390f35b61024c610725565b60405161023b9190612924565b610261610758565b60405190815260200161023b565b61022761027d36600461294a565b610844565b61026161086c565b6101fe610298366004612961565b6108e4565b6101fe610a68565b6101fe6102b33660046129e1565b610b14565b610227610ba3565b600254610227906001600160a01b031681565b610261610bac565b6102e3610c6c565b60405161023b9190612a39565b6102616102fe36600461294a565b610cf8565b61022761031136600461294a565b610d6b565b6101fe610d7a565b60055461032b9060ff1681565b604051901515815260200161023b565b6101fe611180565b6101fe610351366004612a4b565b611191565b5f54610227906001600160a01b031681565b6103706112c0565b60405161023b9796959493929190612abb565b61026160015481565b6101fe61039a366004612b51565b611369565b6101fe6103ad366004612b88565b6113e2565b6102276114e0565b61026160045481565b6102277f000000000000000000000000000000000000000000000000000000000000000081565b61026161150e565b6102e3611517565b610227610408366004612bdc565b600d6020525f90815260409020546001600160a01b031681565b6101fe610430366004612bdc565b611524565b6101fe610443366004612bf7565b611561565b610450611668565b600c805461045d90612c30565b90506041146104875760405162461bcd60e51b815260040161047e90612c68565b60405180910390fd5b61048f61169a565b5f82116104de5760405162461bcd60e51b815260206004820152601c60248201527f4d7573742077697468647261772061206e6f6e2d7a65726f2073756d00000000604482015260640161047e565b5f5f6104f26104ec85610cf8565b846116d1565b5090925090505f81600381111561050b5761050b612910565b146105585760405162461bcd60e51b815260206004820152601c60248201527f4d616c666f726d6564207369676e61747572652070726f766964656400000000604482015260640161047e565b5f546001600160a01b038381169116146105845760405162461bcd60e51b815260040161047e90612c9f565b61058c61171a565b6002546040516370a0823160e01b81523060048201525f916001600160a01b0316906370a0823190602401602060405180830381865afa1580156105d2573d5f5f3e3d5ffd5b505050506040513d601f19601f820116820180604052508101906105f69190612cf4565b9050808511156106485760405162461bcd60e51b815260206004820152601f60248201527f4f7665726472616674206f6e20746865206578697374696e672066756e647300604482015260640161047e565b5f6127106001548761065a9190612d1f565b6106649190612d36565b905061068e6106716114e0565b61067b8389612d55565b6002546001600160a01b03169190611a27565b5f546002546106aa916001600160a01b03918216911683611a27565b8560065f8282546106bb9190612d68565b909155505060048054905f6106cf83612d7b565b90915550506040518681527f4e70a604b23a8edee2b1d0a656e9b9c00b73ad8bb1afc2c59381ee9f69197de79060200160405180910390a15050505061072160015f5160206132e45f395f51905f5255565b5050565b6005545f9060ff1661075057600c805461073e90612c30565b15905061074b5750600190565b505f90565b60025b905090565b5f805b600954811015610840575f805b600b548110156107fa5760075f6009858154811061078857610788612d93565b5f9182526020808320909101546001600160a01b031683528201929092526040018120600b8054919291849081106107c2576107c2612d93565b5f9182526020808320909101546001600160a01b031683528201929092526040019020546107f09083612d68565b9150600101610768565b5061082b6009838154811061081157610811612d93565b5f918252602090912001546001600160a01b031682611a9e565b6108359084612d68565b92505060010161075b565b5090565b60098181548110610853575f80fd5b5f918252602090912001546001600160a01b0316905081565b5f5f7f6e3cb1dffbf12f96a0a8b721ff0637ac0ed073e1a966643ea5c8aafe73287e82600360405161089e9190612da7565b6040519081900381206108bd9291602001918252602082015260400190565b6040516020818303038152906040528051906020012090506108de81611cbe565b91505090565b5f6108ed611cea565b805490915060ff600160401b82041615906001600160401b03165f811580156109135750825b90505f826001600160401b0316600114801561092e5750303b155b90508115801561093c575080155b1561095a5760405163f92ee8a960e01b815260040160405180910390fd5b845467ffffffffffffffff19166001178555831561098457845460ff60401b1916600160401b1785555b5f808080806109958b8d018d612e18565b945094509450945094506109a885611d12565b6109e760405180604001604052806004815260200163119d5b9960e21b815250604051806040016040528060018152602001603160f81b815250611d23565b6109ef611d35565b5f80546001600160a01b0319166001600160a01b038616179055610a148383836113e2565b50505050508315610a5f57845460ff60401b19168555604051600181527fc7f505b2f371ae2175ee4913f4499e1f2633a7b5936321eed1cdaeb6115181d29060200160405180910390a15b50505050505050565b610a706114e0565b6001600160a01b0316336001600160a01b03161480610a9857505f546001600160a01b031633145b610ab45760405162461bcd60e51b815260040161047e90612e78565b600c8054610ac190612c30565b9050604114610ae25760405162461bcd60e51b815260040161047e90612c68565b60055460ff1615610b055760405162461bcd60e51b815260040161047e90612ec2565b6005805460ff19166001179055565b600c8054610b2190612c30565b9050604114610b425760405162461bcd60e51b815260040161047e90612c68565b60055460ff1615610b655760405162461bcd60e51b815260040161047e90612ec2565b610b6d61169a565b610b826001600160a01b038316333084611d45565b610b8d823383611d7e565b61072160015f5160206132e45f395f51905f5255565b5f6107536114e0565b5f805b600954811015610840575f60098281548110610bcd57610bcd612d93565b5f918252602090912001546040516370a0823160e01b81523060048201526001600160a01b03909116906370a0823190602401602060405180830381865afa158015610c1b573d5f5f3e3d5ffd5b505050506040513d601f19601f82011682018060405250810190610c3f9190612cf4565b9050610c576009838154811061081157610811612d93565b610c619084612d68565b925050600101610baf565b600c8054610c7990612c30565b80601f0160208091040260200160405190810160405280929190818152602001828054610ca590612c30565b8015610cf05780601f10610cc757610100808354040283529160200191610cf0565b820191905f5260205f20905b815481529060010190602001808311610cd357829003601f168201915b505050505081565b600454604080517f4313e6b8e1d8e1e7822726417040b55e67609906e8c0eed1e346d512b65ce559602082015230918101919091526060810183905260808101919091525f90819060a001604051602081830303815290604052805190602001209050610d6481611cbe565b9392505050565b600b8181548110610853575f80fd5b610d826114e0565b6001600160a01b0316336001600160a01b03161480610daa57505f546001600160a01b031633145b610dc65760405162461bcd60e51b815260040161047e90612e78565b600c8054610dd390612c30565b9050604114610df45760405162461bcd60e51b815260040161047e90612c68565b610dfc61169a565b610e0461171a565b6002546040516370a0823160e01b81523060048201525f916001600160a01b0316906370a0823190602401602060405180830381865afa158015610e4a573d5f5f3e3d5ffd5b505050506040513d601f19601f82011682018060405250810190610e6e9190612cf4565b90505f8111610eb45760405162461bcd60e51b8152602060048201526012602482015271139bc8199d5b991cc81d1bc81c99599d5b9960721b604482015260640161047e565b5f805b600954811015610f89575f805b600b54811015610f565760075f60098581548110610ee457610ee4612d93565b5f9182526020808320909101546001600160a01b031683528201929092526040018120600b805491929184908110610f1e57610f1e612d93565b5f9182526020808320909101546001600160a01b03168352820192909252604001902054610f4c9083612d68565b9150600101610ec4565b508015610f8057610f736009838154811061081157610811612d93565b610f7d9084612d68565b92505b50600101610eb7565b505f8111610fd95760405162461bcd60e51b815260206004820152601d60248201527f4e6f20726567697374657265642076616c756520746f20726566756e64000000604482015260640161047e565b5f5b600b5481101561112c575f600b8281548110610ff957610ff9612d93565b5f9182526020822001546001600160a01b03169150805b6009548110156110e4575f60075f6009848154811061103157611031612d93565b5f9182526020808320909101546001600160a01b0390811684528382019490945260409283018220938816825292909252902054905080156110db576110836009838154811061081157610811612d93565b61108d9084612d68565b92505f60075f600985815481106110a6576110a6612d93565b5f9182526020808320909101546001600160a01b03908116845283820194909452604092830182209389168252929092529020555b50600101611010565b508015611122575f846110f78784612d1f565b6111019190612d36565b9050801561112057600254611120906001600160a01b03168483611a27565b505b5050600101610fdb565b505f60065560405182815233907fbb28353e4598c3b9199101a66e0989549b659a59a54d2c27fbb183f1932c8e6d9060200160405180910390a2505061117e60015f5160206132e45f395f51905f5255565b565b611188611668565b61117e5f611f11565b600c805461119e90612c30565b90506041146111bf5760405162461bcd60e51b815260040161047e90612c68565b60055460ff16156111e25760405162461bcd60e51b815260040161047e90612ec2565b6111ea61169a565b60208101516040808301516060840151915163d505accf60e01b81526001600160a01b03888116600483015230602483015260448201889052606482018790525f9390931a6084820181905260a4820185905260c48201839052919289169063d505accf9060e4015f604051808303815f87803b158015611269575f5ffd5b505af115801561127b573d5f5f3e3d5ffd5b50611295925050506001600160a01b038916883089611d45565b6112a0888888611d7e565b5050506112b960015f5160206132e45f395f51905f5255565b5050505050565b5f60608082808083815f5160206132c45f395f51905f5280549091501580156112eb57506001810154155b61132f5760405162461bcd60e51b81526020600482015260156024820152741152540dcc4c8e88155b9a5b9a5d1a585b1a5e9959605a1b604482015260640161047e565b611337611f55565b61133f612015565b604080515f80825260208201909252600f60f81b9c939b5091995046985030975095509350915050565b6113716114e0565b6001600160a01b0316336001600160a01b0316148061139957505f546001600160a01b031633145b6113b55760405162461bcd60e51b815260040161047e90612e78565b6001600160a01b039182165f908152600d6020526040902080546001600160a01b03191691909216179055565b600c80546113ef90612c30565b1590506114365760405162461bcd60e51b8152602060048201526015602482015274119d5b99081d195c9b5cc8185c99481b1bd8dad959605a1b604482015260640161047e565b6127108311156114ae5760405162461bcd60e51b815260206004820152603960248201527f4f7261636c6520637574206d757374206265206120322d64696769742070657260448201527f63656e74616765202830203c3d20637574203c3d203165342900000000000000606482015260840161047e565b6001839055600280546001600160a01b0319166001600160a01b03841617905560036114da8282612f3d565b50505050565b7f9016d09d72d40fdae2fd8ceac6b6234c7706214fd39c1cd1e609a0528c199300546001600160a01b031690565b5f610753610bac565b60038054610c7990612c30565b61152c611668565b6001600160a01b03811661155557604051631e4fbdf760e01b81525f600482015260240161047e565b61155e81611f11565b50565b611569611668565b600c805461157690612c30565b1590506115bd5760405162461bcd60e51b8152602060048201526015602482015274119d5b99081d195c9b5cc8185c99481b1bd8dad959605a1b604482015260640161047e565b5f5f6115ca6104ec61086c565b5090925090505f8160038111156115e3576115e3612910565b146116305760405162461bcd60e51b815260206004820152601c60248201527f4d616c666f726d6564207369676e61747572652070726f766964656400000000604482015260640161047e565b5f546001600160a01b0383811691161461165c5760405162461bcd60e51b815260040161047e90612c9f565b600c6114da8482612f3d565b336116716114e0565b6001600160a01b03161461117e5760405163118cdaa760e01b815233600482015260240161047e565b5f5160206132e45f395f51905f528054600119016116cb57604051633ee5aeb560e01b815260040160405180910390fd5b60029055565b5f5f5f8351604103611708576020840151604085015160608601515f1a6116fa88828585612053565b955095509550505050611713565b505081515f91506002905b9250925092565b5f5b60095481101561155e575f6009828154811061173a5761173a612d93565b5f918252602090912001546002546001600160a01b039182169250168114611a1e576040516370a0823160e01b81523060048201525f906001600160a01b038316906370a0823190602401602060405180830381865afa1580156117a0573d5f5f3e3d5ffd5b505050506040513d601f19601f820116820180604052508101906117c49190612cf4565b90508015611a1c576118006001600160a01b0383167f00000000000000000000000000000000000000000000000000000000000000008361211b565b60408051610100810182526001600160a01b03808516825260025481166020830152610bb88284015230606083015242608083015260a082018490525f60c0830181905260e0830152915163414bf38960e01b815290917f0000000000000000000000000000000000000000000000000000000000000000169063414bf3899061188e908490600401612ff7565b6020604051808303815f875af19250505080156118c8575060408051601f3d908101601f191682019092526118c591810190612cf4565b60015b611a18576118d4613074565b806308c379a00361197057506118e861308d565b806118f35750611972565b6119276001600160a01b0385167f00000000000000000000000000000000000000000000000000000000000000005f61219d565b836001600160a01b03167f25e268b6e417ca50f83f2b95db36dfd7e9d897f9b0b714668524e848e8635347848360405161196292919061310f565b60405180910390a250611a1a565b505b6119a66001600160a01b0384167f00000000000000000000000000000000000000000000000000000000000000005f61219d565b826001600160a01b03167f25e268b6e417ca50f83f2b95db36dfd7e9d897f9b0b714668524e848e863534783604051611a0b918152604060208201819052601290820152712ab735b737bbb71039bbb0b81032b93937b960711b606082015260800190565b60405180910390a2611a1a565b505b505b505b5060010161171c565b6040516001600160a01b03838116602483015260448201839052611a8691859182169063a9059cbb906064015b604051602081830303815290604052915060e01b6020820180516001600160e01b038381831617835250505050612228565b505050565b60015f5160206132e45f395f51905f5255565b6002545f906001600160a01b0390811690841603611abd575080611cb8565b5f5f5f611ac986612294565b9250925092505f83131580611ae85750610e10611ae68342612d55565b115b15611af8575f9350505050611cb8565b6002545f908190611b11906001600160a01b0316612294565b50915091505f886001600160a01b031663313ce5676040518163ffffffff1660e01b8152600401602060405180830381865afa158015611b53573d5f5f3e3d5ffd5b505050506040513d601f19601f82011682018060405250810190611b779190613127565b90505f60025f9054906101000a90046001600160a01b03166001600160a01b031663313ce5676040518163ffffffff1660e01b8152600401602060405180830381865afa158015611bca573d5f5f3e3d5ffd5b505050506040513d601f19601f82011682018060405250810190611bee9190613127565b90505f8413611c4e57611c0282600a61322a565b611c0d86600a61322a565b611c179190612d1f565b611c2282600a61322a565b611c2c898c612d1f565b611c369190612d1f565b611c409190612d36565b975050505050505050611cb8565b610e10611c5b8442612d55565b1115611c70575f975050505050505050611cb8565b611c7b82600a61322a565b611c859085612d1f565b611c9082600a61322a565b611c9a898c612d1f565b611ca49190612d1f565b611cae9190612d36565b9750505050505050505b92915050565b5f611cb8611cca612588565b8360405161190160f01b8152600281019290925260228201526042902090565b5f807ff0c57e16840df040f15088dc2f81fe391c3923bec73e23a9662efc9c229c6a00611cb8565b611d1a612591565b61155e816125b6565b611d2b612591565b61072182826125be565b611d3d612591565b61117e61261d565b6040516001600160a01b0384811660248301528381166044830152606482018390526114da9186918216906323b872dd90608401611a54565b6001600160a01b0383165f9081526008602052604090205460ff16611e00576009805460018082019092557f6e1540171b6c0c960b71a7020d9f60077f6af931a8bbf590da0223dacf75c7af0180546001600160a01b0319166001600160a01b0386169081179091555f908152600860205260409020805460ff191690911790555b6001600160a01b0382165f908152600a602052604090205460ff16611e8257600b805460018082019092557f0175b7a638427703f0dbe7bb9bbf987a2551717b34e79f33b5b1008d1fa01db90180546001600160a01b0319166001600160a01b0385169081179091555f908152600a60205260409020805460ff191690911790555b6001600160a01b038084165f90815260076020908152604080832093861683529290529081208054839290611eb8908490612d68565b92505081905550816001600160a01b0316836001600160a01b03167f5548c837ab068cf56a2c2479df0882a4922fd203edb7517321831d95078c5f6283604051611f0491815260200190565b60405180910390a3505050565b5f611f1a6114e0565b6001600160a01b031614611f4c57604051631e4fbdf760e01b81526001600160a01b038216600482015260240161047e565b61155e81612625565b7fa16a46d94261c7517cc8ff89f61c0ce93598e3c849801011dee649a6a557d10280546060915f5160206132c45f395f51905f5291611f9390612c30565b80601f0160208091040260200160405190810160405280929190818152602001828054611fbf90612c30565b801561200a5780601f10611fe15761010080835404028352916020019161200a565b820191905f5260205f20905b815481529060010190602001808311611fed57829003601f168201915b505050505091505090565b7fa16a46d94261c7517cc8ff89f61c0ce93598e3c849801011dee649a6a557d10380546060915f5160206132c45f395f51905f5291611f9390612c30565b5f80807f7fffffffffffffffffffffffffffffff5d576e7357a4501ddfe92f46681b20a084111561208c57505f91506003905082612111565b604080515f808252602082018084528a905260ff891692820192909252606081018790526080810186905260019060a0016020604051602081039080840390855afa1580156120dd573d5f5f3e3d5ffd5b5050604051601f1901519150506001600160a01b03811661210857505f925060019150829050612111565b92505f91508190505b9450945094915050565b604051636eb1769f60e11b81523060048201526001600160a01b0383811660248301525f919085169063dd62ed3e90604401602060405180830381865afa158015612168573d5f5f3e3d5ffd5b505050506040513d601f19601f8201168201806040525081019061218c9190612cf4565b90506114da848461219d8585612d68565b604080516001600160a01b038416602482015260448082018490528251808303909101815260649091019091526020810180516001600160e01b031663095ea7b360e01b1790526121ee8482612695565b6114da576040516001600160a01b0384811660248301525f604483015261222291869182169063095ea7b390606401611a54565b6114da84825b5f5f60205f8451602086015f885af180612247576040513d5f823e3d81fd5b50505f513d9150811561225e57806001141561226b565b6001600160a01b0384163b155b156114da57604051635274afe760e01b81526001600160a01b038516600482015260240161047e565b5f80807f00000000000000000000000000000000000000000000000000000000000000006001600160a01b03161561246f57604051634f129c5360e01b81526001600160a01b0385811660048301527f00000000000000000000000000000000000000000000000000000000000000001690634f129c5390602401602060405180830381865afa925050508015612348575060408051601f3d908101601f1916820190925261234591810190613238565b60015b1561246f57801561246d5760405163509e63b560e11b81526001600160a01b0386811660048301527f0000000000000000000000000000000000000000000000000000000000000000169063a13cc76a9060240160a060405180830381865afa9250505080156123d5575060408051601f3d908101601f191682019092526123d291810190613275565b60015b1561246d5783827f00000000000000000000000000000000000000000000000000000000000000006001600160a01b031663313ce5676040518163ffffffff1660e01b8152600401602060405180830381865afa158015612438573d5f5f3e3d5ffd5b505050506040513d601f19601f8201168201806040525081019061245c9190613127565b985098509850505050505050612581565b505b6001600160a01b038085165f908152600d6020526040902054168061249e575f5f600893509350935050612581565b5f819050806001600160a01b031663feaf968c6040518163ffffffff1660e01b815260040160a060405180830381865afa9250505080156124fc575060408051601f3d908101601f191682019092526124f991810190613275565b60015b612511575f5f60089450945094505050612581565b8382876001600160a01b031663313ce5676040518163ffffffff1660e01b8152600401602060405180830381865afa15801561254f573d5f5f3e3d5ffd5b505050506040513d601f19601f820116820180604052508101906125739190613127565b995099509950505050505050505b9193909250565b5f6107536126de565b612599612751565b61117e57604051631afcd79f60e31b815260040160405180910390fd5b61152c612591565b6125c6612591565b5f5160206132c45f395f51905f527fa16a46d94261c7517cc8ff89f61c0ce93598e3c849801011dee649a6a557d1026125ff8482612f3d565b506003810161260e8382612f3d565b505f8082556001909101555050565b611a8b612591565b7f9016d09d72d40fdae2fd8ceac6b6234c7706214fd39c1cd1e609a0528c19930080546001600160a01b031981166001600160a01b03848116918217845560405192169182907f8be0079c531659141344cd1fd0a4f28419497f9722a3daafe3b4186f6b6457e0905f90a3505050565b5f5f5f5f60205f8651602088015f8a5af192503d91505f5190508280156126d4575081156126c657806001146126d4565b5f866001600160a01b03163b115b9695505050505050565b5f7f8b73c3c69bb8fe3d512ecc4cf759cc79239f7b179b0ffacaa9a75d522b39400f61270861276a565b6127106127d2565b60408051602081019490945283019190915260608201524660808201523060a082015260c00160405160208183030381529060405280519060200120905090565b5f61275a611cea565b54600160401b900460ff16919050565b5f5f5160206132c45f395f51905f5281612782611f55565b80519091501561279a57805160209091012092915050565b815480156127a9579392505050565b7fc5d2460186f7233c927e7db2dcc703c0e500b653ca82273b7bfad8045d85a470935050505090565b5f5f5160206132c45f395f51905f52816127ea612015565b80519091501561280257805160209091012092915050565b600182015480156127a9579392505050565b634e487b7160e01b5f52604160045260245ffd5b601f8201601f191681016001600160401b038111828210171561284d5761284d612814565b6040525050565b5f82601f830112612863575f5ffd5b8135602083015f5f6001600160401b0384111561288257612882612814565b50604051601f8401601f19166020019061289c8282612828565b8092508481528785850111156128b0575f5ffd5b848460208301375f60208683010152809550505050505092915050565b5f5f604083850312156128de575f5ffd5b8235915060208301356001600160401b038111156128fa575f5ffd5b61290685828601612854565b9150509250929050565b634e487b7160e01b5f52602160045260245ffd5b602081016003831061294457634e487b7160e01b5f52602160045260245ffd5b91905290565b5f6020828403121561295a575f5ffd5b5035919050565b5f5f60208385031215612972575f5ffd5b82356001600160401b03811115612987575f5ffd5b8301601f81018513612997575f5ffd5b80356001600160401b038111156129ac575f5ffd5b8560208284010111156129bd575f5ffd5b6020919091019590945092505050565b6001600160a01b038116811461155e575f5ffd5b5f5f604083850312156129f2575f5ffd5b82356129fd816129cd565b946020939093013593505050565b5f81518084528060208401602086015e5f602082860101526020601f19601f83011685010191505092915050565b602081525f610d646020830184612a0b565b5f5f5f5f5f60a08688031215612a5f575f5ffd5b8535612a6a816129cd565b94506020860135612a7a816129cd565b9350604086013592506060860135915060808601356001600160401b03811115612aa2575f5ffd5b612aae88828901612854565b9150509295509295909350565b60ff60f81b8816815260e060208201525f612ad960e0830189612a0b565b8281036040840152612aeb8189612a0b565b606084018890526001600160a01b038716608085015260a0840186905283810360c0850152845180825260208087019350909101905f5b81811015612b40578351835260209384019390920191600101612b22565b50909b9a5050505050505050505050565b5f5f60408385031215612b62575f5ffd5b8235612b6d816129cd565b91506020830135612b7d816129cd565b809150509250929050565b5f5f5f60608486031215612b9a575f5ffd5b833592506020840135612bac816129cd565b915060408401356001600160401b03811115612bc6575f5ffd5b612bd286828701612854565b9150509250925092565b5f60208284031215612bec575f5ffd5b8135610d64816129cd565b5f60208284031215612c07575f5ffd5b81356001600160401b03811115612c1c575f5ffd5b612c2884828501612854565b949350505050565b600181811c90821680612c4457607f821691505b602082108103612c6257634e487b7160e01b5f52602260045260245ffd5b50919050565b6020808252601d908201527f46756e64207465726d7320617265206e6f7420796574206c6f636b6564000000604082015260600190565b60208082526035908201527f496e76616c6964207369676e65722070726f766964656420286d7573742062656040820152742074686520636f6e7472616374206f7261636c652960581b606082015260800190565b5f60208284031215612d04575f5ffd5b5051919050565b634e487b7160e01b5f52601160045260245ffd5b8082028115828204841417611cb857611cb8612d0b565b5f82612d5057634e487b7160e01b5f52601260045260245ffd5b500490565b81810381811115611cb857611cb8612d0b565b80820180821115611cb857611cb8612d0b565b5f60018201612d8c57612d8c612d0b565b5060010190565b634e487b7160e01b5f52603260045260245ffd5b5f5f8354612db481612c30565b600182168015612dcb5760018114612de057612e0d565b60ff1983168652811515820286019350612e0d565b865f5260205f205f5b83811015612e0557815488820152600190910190602001612de9565b505081860193505b509195945050505050565b5f5f5f5f5f60a08688031215612e2c575f5ffd5b8535612e37816129cd565b94506020860135612e47816129cd565b9350604086013592506060860135612e5e816129cd565b915060808601356001600160401b03811115612aa2575f5ffd5b6020808252602a908201527f4e6f7420612066756e64206d616e616765722028692e652e20776f726b6572206040820152696f72206f7261636c652960b01b606082015260800190565b6020808252601c908201527f46756e642068617320616c7265616479206265656e20636c6f73656400000000604082015260600190565b601f821115611a8657805f5260205f20601f840160051c81016020851015612f1e5750805b601f840160051c820191505b818110156112b9575f8155600101612f2a565b81516001600160401b03811115612f5657612f56612814565b612f6a81612f648454612c30565b84612ef9565b6020601f821160018114612f9c575f8315612f855750848201515b5f19600385901b1c1916600184901b1784556112b9565b5f84815260208120601f198516915b82811015612fcb5787850151825560209485019460019092019101612fab565b5084821015612fe857868401515f19600387901b60f8161c191681555b50505050600190811b01905550565b81516001600160a01b03908116825260208084015182169083015260408084015162ffffff169083015260608084015191821690830152610100820190506080830151608083015260a083015160a083015260c083015160c083015260e083015161306d60e08401826001600160a01b03169052565b5092915050565b5f60033d111561308a5760045f5f3e505f5160e01c5b90565b5f60443d101561309a5790565b6040513d600319016004823e80513d60248201116001600160401b03821117156130c357505090565b80820180516001600160401b038111156130de575050505090565b3d84016003190182820160200111156130f8575050505090565b61310760208285010185612828565b509392505050565b828152604060208201525f612c286040830184612a0b565b5f60208284031215613137575f5ffd5b815160ff81168114610d64575f5ffd5b6001815b60018411156131825780850481111561316657613166612d0b565b600184161561317457908102905b60019390931c92800261314b565b935093915050565b5f8261319857506001611cb8565b816131a457505f611cb8565b81600181146131ba57600281146131c4576131e0565b6001915050611cb8565b60ff8411156131d5576131d5612d0b565b50506001821b611cb8565b5060208310610133831016604e8410600b8410161715613203575081810a611cb8565b61320f5f198484613147565b805f190482111561322257613222612d0b565b029392505050565b5f610d6460ff84168361318a565b5f60208284031215613248575f5ffd5b81518015158114610d64575f5ffd5b805169ffffffffffffffffffff81168114613270575f5ffd5b919050565b5f5f5f5f5f60a08688031215613289575f5ffd5b61329286613257565b602087015160408801516060890151929750909550935091506132b760808701613257565b9050929550929590935056fea16a46d94261c7517cc8ff89f61c0ce93598e3c849801011dee649a6a557d1009b779b17422d0df92223018b32b4d1fa46e071723d6817e2486d003becc55f00a26469706673582212207e9e6d0dc3a2f61c9100be275a5e010a8f3b45d86ed74edc616ad33c799d81fc64736f6c634300081c00339016d09d72d40fdae2fd8ceac6b6234c7706214fd39c1cd1e609a0528c199300f0c57e16840df040f15088dc2f81fe391c3923bec73e23a9662efc9c229c6a00",
  "linkReferences": {},
  "deployedLinkReferences": {},
  "immutableReferences": {
    "9196": [
      {
        "length": 32,
        "start": 968
      },
      {
        "length": 32,
        "start": 6107
      },
      {
        "length": 32,
        "start": 6233
      },
      {
        "length": 32,
        "start": 6402
      },
      {
        "length": 32,
        "start": 6529
      }
    ],
    "9200": [
      {
        "length": 32,
        "start": 517
      },
      {
        "length": 32,
        "start": 8857
      },
      {
        "length": 32,
        "start": 8933
      },
      {
        "length": 32,
        "start": 9074
      },
      {
        "length": 32,
        "start": 9182
      }
    ]
  },
  "inputSourceName": "project/contracts/Fund.sol",
  "buildInfoId": "solc-0_8_28-59d5519e9eeb8755460dc1d676ce98dd165f4e8f"
}