{
  "_format": "hh3-artifact-1",
  "contractName": "FundFactory",
  "sourceName": "contracts/FundFactory.sol",
  "abi": [
    {
      "inputs": [
        {
          "internalType": "contract IFund",
          "name": "fundImplementation",
          "type": "address"
        }
      ],
      "stateMutability": "nonpayable",
      "type": "constructor"
    },
    {
      "inputs": [],
      "name": "FailedDeployment",
      "type": "error"
    },
    {
      "inputs": [
        {
          "internalType": "uint256",
          "name": "balance",
          "type": "uint256"
        },
        {
          "internalType": "uint256",
          "name": "needed",
          "type": "uint256"
        }
      ],
      "name": "InsufficientBalance",
      "type": "error"
    },
    {
      "anonymous": false,
      "inputs": [
        {
          "indexed": true,
          "internalType": "address",
          "name": "worker",
          "type": "address"
        },
        {
          "indexed": true,
          "internalType": "address",
          "name": "oracle",
          "type": "address"
        }
      ],
      "name": "Deploy",
      "type": "event"
    },
    {
      "inputs": [],
      "name": "FUND_IMPLEMENTATION",
      "outputs": [
        {
          "internalType": "contract IFund",
          "name": "",
          "type": "address"
        }
      ],
      "stateMutability": "view",
      "type": "function"
    },
    {
      "inputs": [
        {
          "internalType": "bytes",
          "name": "args",
          "type": "bytes"
        }
      ],
      "name": "deploy",
      "outputs": [
        {
          "internalType": "address",
          "name": "proxy",
          "type": "address"
        }
      ],
      "stateMutability": "nonpayable",
      "type": "function"
    },
    {
      "inputs": [
        {
          "internalType": "bytes",
          "name": "args",
          "type": "bytes"
        },
        {
          "internalType": "bytes32",
          "name": "salt",
          "type": "bytes32"
        }
      ],
      "name": "deploy",
      "outputs": [
        {
          "internalType": "address",
          "name": "proxy",
          "type": "address"
        }
      ],
      "stateMutability": "nonpayable",
      "type": "function"
    },
    {
      "inputs": [],
      "name": "instances",
      "outputs": [
        {
          "internalType": "address[]",
          "name": "",
          "type": "address[]"
        }
      ],
      "stateMutability": "view",
      "type": "function"
    },
    {
      "inputs": [
        {
          "internalType": "uint256",
          "name": "i",
          "type": "uint256"
        }
      ],
      "name": "instances",
      "outputs": [
        {
          "internalType": "address",
          "name": "",
          "type": "address"
        }
      ],
      "stateMutability": "view",
      "type": "function"
    },
    {
      "inputs": [
        {
          "internalType": "address",
          "name": "account",
          "type": "address"
        },
        {
          "internalType": "enum IFund.Role",
          "name": "role",
          "type": "uint8"
        }
      ],
      "name": "instances",
      "outputs": [
        {
          "internalType": "address[]",
          "name": "",
          "type": "address[]"
        }
      ],
      "stateMutability": "view",
      "type": "function"
    }
  ],
  "bytecode": "0x60a0604052348015600e575f5ffd5b506040516108c03803806108c0833981016040819052602b91603b565b6001600160a01b03166080526066565b5f60208284031215604a575f5ffd5b81516001600160a01b0381168114605f575f5ffd5b9392505050565b60805161083c6100845f395f818160e60152610141015261083c5ff3fe608060405234801561000f575f5ffd5b506004361061005f575f3560e01c8062774360146100635780634af63f02146100935780634d2ace66146100a6578063a2f7b3a5146100bb578063da6adc17146100ce578063da736e77146100e1575b5f5ffd5b61007661007136600461064c565b610108565b6040516001600160a01b0390911681526020015b60405180910390f35b6100766100a136600461068b565b61011b565b6100ae61035b565b60405161008a91906106d3565b6100766100c936600461071e565b6103bb565b6100ae6100dc36600461074c565b6103e9565b6100767f000000000000000000000000000000000000000000000000000000000000000081565b5f61011483838361011b565b9392505050565b5f5f825f1c8585604051610130929190610786565b6040519081900390201890506101667f000000000000000000000000000000000000000000000000000000000000000082610595565b60405163439fab9160e01b81529092506001600160a01b0383169063439fab91906101979088908890600401610795565b5f604051808303815f87803b1580156101ae575f5ffd5b505af11580156101c0573d5f5f3e3d5ffd5b505050505f826001600160a01b0316634d547ada6040518163ffffffff1660e01b81526004016020604051808303815f875af1158015610202573d5f5f3e3d5ffd5b505050506040513d601f19601f8201168201806040525081019061022691906107c3565b90505f836001600160a01b0316637dc0d1d06040518163ffffffff1660e01b81526004016020604051808303815f875af1158015610266573d5f5f3e3d5ffd5b505050506040513d601f19601f8201168201806040525081019061028a91906107c3565b6001600160a01b038084165f818152602081815260408083208054600181810183559185528385200180548c88166001600160a01b0319918216811790925596881680865282855283862080548085018255908752948620909401805488168217905560028054928301815585527f405787fa12a823e0f2b7631cc41b3ba8828b3321ca811111fa75cd3aa3bb5ace9091018054909616179094559251939450919290917fb1a29087760d8e8f9b263f598962f752e7bd23badd44897e2966d376d1a59dca91a35050509392505050565b606060028054806020026020016040519081016040528092919081815260200182805480156103b157602002820191905f5260205f20905b81546001600160a01b03168152600190910190602001808311610393575b5050505050905090565b5f600282815481106103cf576103cf6107de565b5f918252602090912001546001600160a01b031692915050565b60605f8260028111156103fe576103fe6107f2565b148061041b57506001826002811115610419576104196107f2565b145b61049d5760405162461bcd60e51b815260206004820152604360248201527f466163746f727920696e7374616e6365732063616e206f6e6c7920637572726560448201527f6e746c79206265207175657269656420627920776f726b6572206f72206f7261606482015262636c6560e81b608482015260a40160405180910390fd5b5f8260028111156104b0576104b06107f2565b03610524576001600160a01b0383165f90815260208181526040918290208054835181840281018401909452808452909183018282801561051857602002820191905f5260205f20905b81546001600160a01b031681526001909101906020018083116104fa575b5050505050905061058f565b6001600160a01b0383165f908152600160209081526040918290208054835181840281018401909452808452909183018282801561051857602002820191905f5260205f209081546001600160a01b031681526001909101906020018083116104fa57505050505090505b92915050565b5f61011483838380763d602d80600a3d3981f3363d3d373d3d3d363d730000008460601b60e81c175f526e5af43d82803e903d91602b57fd5bf38460781b17602052826037600984f590506001600160a01b0381166101145760405163b06ebf3d60e01b815260040160405180910390fd5b5f5f83601f840112610617575f5ffd5b50813567ffffffffffffffff81111561062e575f5ffd5b602083019150836020828501011115610645575f5ffd5b9250929050565b5f5f6020838503121561065d575f5ffd5b823567ffffffffffffffff811115610673575f5ffd5b61067f85828601610607565b90969095509350505050565b5f5f5f6040848603121561069d575f5ffd5b833567ffffffffffffffff8111156106b3575f5ffd5b6106bf86828701610607565b909790965060209590950135949350505050565b602080825282518282018190525f918401906040840190835b818110156107135783516001600160a01b03168352602093840193909201916001016106ec565b509095945050505050565b5f6020828403121561072e575f5ffd5b5035919050565b6001600160a01b0381168114610749575f5ffd5b50565b5f5f6040838503121561075d575f5ffd5b823561076881610735565b915060208301356003811061077b575f5ffd5b809150509250929050565b818382375f9101908152919050565b60208152816020820152818360408301375f818301604090810191909152601f909201601f19160101919050565b5f602082840312156107d3575f5ffd5b815161011481610735565b634e487b7160e01b5f52603260045260245ffd5b634e487b7160e01b5f52602160045260245ffdfea26469706673582212209b324e7c987407f58a3780180df4cab97cb0b16554b86c47f4ce1c5395b952bf64736f6c634300081c0033",
  "linkReferences": {},
  "deployedLinkReferences": {},
  "immutableReferences": {
    "8094": [
      {
        "length": 32,
        "start": 230
      },
      {
        "length": 32,
        "start": 321
      }
    ]
  },
  "inputSourceName": "project/contracts/FundFactory.sol",
  "buildInfoId": "solc-0_8_28-fe7e188fcb3415c715827b1c5b46f98b975d276c"
}